:1000000013C037C036C035C034C033C032C031C071
:1000100030C05CC02EC000C12CC02BC02AC029C07B
:1000200028C027C026C0810211241FBECFE5D4E01E
:10003000DEBFCDBF10E0A0E6B0E0E8E9F8E002C026
:1000400005900D92AC36B107D9F711E0ACE6B0E0FF
:1000500001C01D92AC30B107E1F710E0C8E2D0E07A
:1000600003C02297FE0112D4C632D107D1F72AD09D
:1000700011C4C6CF89EF90E0F7D1882331F46AE04C
:1000800070E080E090E06AD0089589EF90E0FFD1C1
:10009000823779F480E0ABD064E070E091D3AB01BB
:1000A000662757FD6095762F89EF90E020E030E0DD
:1000B00055D3089589EF90E040E052EC61E070E0A4
:1000C000E6D0089575D0F6DFD5DFFECF1F920F92F0
:1000D0000FB60F9211242F933F938F939F93AF935B
:1000E000BF938091700090917100A0917200B091C7
:1000F0007300309174000196A11DB11D232F2D5F57
:100100002D3720F02D570196A11DB11D20937400AD
:100110008093700090937100A0937200B09373006D
:1001200080916C0090916D00A0916E00B0916F0075
:100130000196A11DB11D80936C0090936D00A0935A
:100140006E00B0936F00BF91AF919F918F913F91DF
:100150002F910F900FBE0F901F901895EF92FF9266
:100160000F931F937B018C018FB7F894409170001F
:100170005091710060917200709173008FBF2FB722
:10018000F8948091700090917100A0917200B091EC
:1001900073002FBF841B950BA60BB70BE816F9064F
:1001A0000A071B0760F71F910F91FF90EF900895CA
:1001B000789483B7826083BF83B7816083BF89B738
:1001C000816089BF8EB582608EBD8EB581608EBD27
:1001D0008FB581608FBD85B5846085BD85B5806430
:1001E00085BD329A319A309A379A1AB808958F702D
:1001F000909160009295990F990F907C982B97B9E8
:10020000369A3699FECF24B145B1942F80E030E084
:10021000282B392BC90108951F920F920FB60F9208
:1002200011242F933F934F935F936F937F938F93FB
:100230009F93AF93BF93EF93FF934CB1E091F50081
:10024000F091F600CF01019660E870E0B9D29C0110
:100250008091F7009091F8002817390739F0EB5892
:10026000FF4F40833093F6002093F500FF91EF910C
:10027000BF91AF919F918F917F916F915F914F91BE
:100280003F912F910F900FBE0F901F9018955F9286
:100290006F927F928F929F92AF92BF92CF92DF9296
:1002A000EF92FF920F931F93CF93DF93EC013A01EC
:1002B0004B01413482E458078FE0680780E07807FB
:1002C0000CF075C060E874E88EE190E0A401930141
:1002D000ACD22150304040405040CA01B90122E028
:1002E00030E040E050E0A1D259016A01A601950139
:1002F000209530954095509594E0220F331F441F70
:10030000551F9A95D1F760E074E284EF90E08DD2AA
:10031000CA01B9012FEF30E040E050E032D2A40131
:10032000930183D2C90181509F4F181619061CF4FE
:10033000522E5A9403C055245394521A60E079E027
:100340008DE390E0A401930170D2215030404040F1
:100350005040CA01B90122E030E040E050E065D2EF
:10036000209530954095509583E0220F331F441F10
:10037000551F8A95D1F760E074E284EF90E055D282
:10038000CA01B9012FEF30E040E050E0FAD1A401FA
:1003900093014BD2C90181509F4F181619061CF4C6
:1003A000822F815002C081E0821B8515F0F4E88520
:1003B000F98581E090E00A8802C0880F991F0A94AD
:1003C000E2F7808360E079E08DE390E0A40193019F
:1003D0002CD22150304040405040CA01B90122E0A7
:1003E00030E040E050E021D204C0E885F985108279
:1003F0009501EC81FD813083EE81FF812083EA85C8
:10040000FB85208141E050E0CA010E8402C0880FC4
:10041000991F0A94E2F7282B2083EA85FB85208127
:10042000CA010F8402C0880F991F0A94E2F7282B93
:100430002083EA85FB858081088802C0440F551F10
:100440000A94E2F7842B8083DF91CF911F910F9163
:10045000FF90EF90DF90CF90BF90AF909F908F90E4
:100460007F906F905F900895DC011296ED91FC9162
:100470001397E058FF4F8191919180589F4F2081B1
:100480003181821B930B60E870E09AD10895CF937D
:10049000DF93DC011296ED91FC911397EF01CE579B
:1004A000DF4F48815981E058FF4F80819181E058AA
:1004B000F0408417950719F42FEF3FEF0BC0E40FBE
:1004C000F51F2081CA01019660E870E079D1998317
:1004D000888330E0C901DF91CF910895FC01A085A8
:1004E000B18521898C9190E0022E02C09595879567
:1004F0000A94E2F780FFF6CF0484F585E02D60834F
:10050000089585E690E09093FA008093F90085E7DE
:1005100090E09093FC008093FB0080E490E0909347
:10052000FE008093FD0089E290E0909300018093AB
:10053000FF008BE290E090930201809301018AE238
:1005400090E090930401809303018CE290E09093FB
:1005500006018093050184E08093070183E0809386
:10056000080187E08093090185E080930A0181E01A
:1005700080930B0108950F931F93CF93DF938C010A
:10058000EB0109C02196D801ED91FC910190F08119
:10059000E02DC801099568816623A1F7DF91CF910D
:1005A0001F910F910895EF92FF920F931F93CF9396
:1005B000DF938C017B01EA010CC0D7016D917D01B5
:1005C000D801ED91FC910190F081E02DC8010995D1
:1005D0002197209791F7DF91CF911F910F91FF9075
:1005E000EF9008952F923F924F925F926F927F9279
:1005F0008F929F92AF92BF92CF92DF92EF92FF9233
:100600000F931F93DF93CF93CDB7DEB7A0970FB6AD
:10061000F894DEBF0FBECDBF1C016A017B014115FE
:1006200051056105710549F4DC01ED91FC910190E2
:10063000F081E02D60E3099552C08824992454018B
:10064000422E55246624772401E010E00C0F1D1F74
:10065000080D191DC701B601A3019201C4D0F8010C
:1006600060830894811C911CA11CB11CC701B601B8
:10067000A3019201B8D0C901DA016C017D01C11456
:10068000D104E104F10401F781E0E82EF12CEC0E35
:10069000FD1EE80CF91C3E010894611C711CD5017B
:1006A000C4010197A109B1096C01C818D90814C087
:1006B000F601EE0DFF1D60816A3010F4605D01C02F
:1006C000695CD101ED91FC910190F081E02DC101B7
:1006D00009950894E108F1086E147F0449F7A09683
:1006E0000FB6F894DEBF0FBECDBFCF91DF911F9143
:1006F0000F91FF90EF90DF90CF90BF90AF909F90C1
:100700008F907F906F905F904F903F902F900895C3
:10071000EF92FF920F931F93CF93DF93EC017A0137
:100720008B0177FF0FC0E881F9810190F081E02D06
:100730006DE2099510950095F094E094E11CF11C90
:10074000011D111DCE01B801A7012AE04BDFDF9189
:10075000CF911F910F91FF90EF900895DC0121152B
:10076000310541F4ED91FC910190F081E02D642F71
:10077000099508952A30310511F4CADF089532DF52
:100780000895629FD001739FF001829FE00DF11DDB
:10079000649FE00DF11D929FF00D839FF00D749FFB
:1007A000F00D659FF00D9927729FB00DE11DF91FA7
:1007B000639FB00DE11DF91FBD01CF011124089504
:1007C00097FB092E07260AD077FD04D049D006D022
:1007D00000201AF4709561957F4F0895F6F7909573
:1007E00081959F4F0895A1E21A2EAA1BBB1BFD0104
:1007F0000DC0AA1FBB1FEE1FFF1FA217B307E40700
:10080000F50720F0A21BB30BE40BF50B661F771F57
:10081000881F991F1A9469F7609570958095909537
:100820009B01AC01BD01CF01089597FB092E052660
:100830000ED057FD04D0D7DF0AD0001C38F45095F5
:100840004095309521953F4F4F4F5F4F0895F6F7F4
:1008500090958095709561957F4F8F4F9F4F08952C
:10086000AA1BBB1B51E107C0AA1FBB1FA617B707D6
:1008700010F0A61BB70B881F991F5A95A9F78095F2
:100880009095BC01CD010895EE0FFF1F0590F491E6
:08089000E02D0994F894FFCF5C
:0C08980001000000006E02BB02D3020051
:00000001FF
